:100000000C9446000C946E000C946E000C946E00E0
:100010000C946E000C946E000C946E000C946E00A8
:100020000C946E000C946E000C946E000C946E0098
:100030000C9470000C946E000C946E000C946E0086
:100040000C9451050C946E000C9437030C946903C6
:100050000C946E000C944B010C946E000C946E008A
:100060000C946E000C946E005072657363616C6545
:1000700062697473203A2000546F70203A0053650F
:1000800074757020446F6E650000990311241FBEC3
:10009000CFEFD8E0DEBFCDBF11E0A0E0B1E0EAECE9
:1000A000FDE002C005900D92A232B107D9F721E020
:1000B000A2E2B1E001C01D92AF37B207E1F710E054
:1000C000CCE8D0E004C02297FE010E94DF06CA38C7
:1000D000D107C9F70E9442050C94E3060C94000076
:1000E0001F920F920FB60F9211242F933F934F93AD
:1000F0005F936F937F938F939F93AF93BF93EF9390
:10010000FF93E0912401F09125010995FF91EF9172
:10011000BF91AF919F918F917F916F915F914F911F
:100120003F912F910F900FBE0F901F901895CF9277
:10013000DF92EF92FF92CF93DF93EC019A01AB0134
:1001400060E074E284E79BE40E94D6050E943E06CC
:100150006B017C01C114D10481E0E806F10410F4C4
:1001600081E00EC043E0F694E794D794C7944A9593
:10017000D1F7C114D10491E0E906F10418F482E04A
:100180008A8331C033E0F694E794D794C7943A95C4
:10019000D1F7C114D10481E0E806F10410F483E042
:1001A000EFCF22E0F694E794D794C7942A95D1F73D
:1001B000C114D10491E0E906F10410F484E0E0CF29
:1001C00092E0F694E794D794C7949A95D1F785E096
:1001D0008A83C114D10481E0E806F10420F0C12C27
:1001E000D12C7601E39468E770E089E291E00E9407
:1001F0001A042AE030E0B701A60189E291E00E94EA
:100200002F0568E670E089E291E00E941A0442E05E
:1002100050E06A8189E291E00E9418058FB7F89456
:1002200091E0C91AD108D0928700C09286008FBF92
:10023000DF91CF91FF90EF90DF90CF900895E0E8AD
:10024000F0E01082A1E8B0E01C922C9128612C9380
:100250002081226020830C949700E1E8F0E0808107
:10026000887F80830895CF93DF93EC010E942D0156
:10027000E1E8F0E080819A81892B8083DF91CF9142
:100280000895FC01718360837894EFE6F0E080814B
:100290008460808308951F920F920FB60F921124ED
:1002A0002F933F934F935F936F937F938F939F937E
:1002B000AF93BF93EF93FF93E0912201F09123015D
:1002C0000995FF91EF91BF91AF919F918F917F9190
:1002D0006F915F914F913F912F910F900FBE0F90B3
:1002E0001F901895EAE7F0E0808187608083ACE793
:1002F000B0E08C9180648C938081806880830895C5
:10030000EAE7F0E0808180628083EBE7F0E08081C3
:10031000887F80838081682B60830895FC017183CE
:1003200060837894EAE7F0E08081886080830895B4
:10033000ECE7F0E08081807F682B608308950E9465
:100340009801EAE7F0E08081806480830895089551
:1003500080917800909179009093280180932701F3
:1003600085B190E2892785B9089526E040E051EEF5
:1003700060E070E089E291E00E94D5026EE770E0F3
:1003800089E291E00E94480440E050E068EC72E4A9
:1003900084E291E00E941F0167EA71E084E291E04B
:1003A0000E94410184E291E00E94330182E291E0E7
:1003B0000E94720168EA71E082E291E00E948E017F
:1003C00065E082E291E00E94800160E082E291E0DB
:1003D0000E949F01259A089560912701709128013C
:1003E0004AE050E089E291E00C94F304FC01818D35
:1003F000228D90E04096821B91098F709927089575
:10040000FC01918D828D981731F0828DE80FF11DDE
:10041000858D90E008958FEF9FEF0895FC01918DF9
:10042000828D981761F0828DDF01A80FB11D5D9656
:100430008C91928D9F5F9F70928F90E008958FEFC7
:100440009FEF08958FE893E0892B49F080E090E0DA
:10045000892B29F00E948F0381110C9400000895CC
:10046000FC01848DDF01A80FB11D9D962C91848D18
:1004700090E001968F719927848FA689B7892C9374
:10048000A089B1898C9180648C93938D848D98130D
:1004900006C00288F389E02D80818F7D80830895D6
:1004A000CF93DF93EC01888D8823C9F0EA89FB891B
:1004B000808185FD05C0A889B9898C9186FD0FC012
:1004C0000FB607FCF5CF808185FFF2CFA889B989E7
:1004D0008C9185FFEDCFCE010E943002E7CFDF91F6
:1004E000CF910895CF92DF92FF920F931F93CF93F6
:1004F000DF931F92CDB7DEB76C0181E0D60158962D
:100500008C9358975B969C915B975C968C915C97CB
:10051000981307C05096ED91FC915197808185FD0D
:100520002CC0F601038D10E00F5F1F4F0F711127D4
:10053000F02EF601848DF81211C00FB607FCF9CF2A
:10054000D6015096ED91FC915197808185FFF1CFB6
:10055000C60169830E9430026981EBCF838DE80F69
:10056000F11D65A7D6015B960C935B975296ED91B2
:10057000FC915397808180620CC0D6015696ED9114
:10058000FC91579760835096ED91FC915197808133
:100590008064808381E090E00F90DF91CF911F9184
:1005A0000F91FF90DF90CF900895BF92CF92DF928E
:1005B000EF92FF92CF93DF93EC016A017B01B22EA1
:1005C000E889F98982E08083411581EE5807610549
:1005D0007105A1F060E079E08DE390E0A70196015C
:1005E0000E94BB0621503109410951095695479592
:1005F00037952795211580E1380798F0E889F98922
:10060000108260E874E88EE190E0A70196010E94F4
:10061000BB06215031094109510956954795379537
:100620002795EC85FD853083EE85FF852083188E28
:10063000EC89FD89B082EA89FB89808180618083B1
:10064000EA89FB89808188608083EA89FB898081CF
:1006500080688083EA89FB8980818F7D8083DF9138
:10066000CF91FF90EF90DF90CF90BF9008951F92B1
:100670000F920FB60F9211242F938F939F93EF93A6
:10068000FF93E0913901F0913A018081E0913F01BF
:10069000F091400182FD12C09081809142018F5FF4
:1006A0008F7020914301821751F0E0914201F0E0F8
:1006B000E75DFE4F958F8093420101C08081FF91DD
:1006C000EF919F918F912F910F900FBE0F901F90E0
:1006D00018951F920F920FB60F9211242F933F93EC
:1006E0004F935F936F937F938F939F93AF93BF933A
:1006F000EF93FF9389E291E00E943002FF91EF9126
:10070000BF91AF919F918F917F916F915F914F9129
:100710003F912F910F900FBE0F901F90189589E277
:1007200091E00E94F60121E0892B09F420E0822F5C
:10073000089510922C0110922B0188EE93E0A0E016
:10074000B0E080932D0190932E01A0932F01B093E0
:10075000300184E091E090932A018093290185EC97
:1007600090E0909336018093350184EC90E0909373
:1007700038018093370180EC90E090933A018093A8
:10078000390181EC90E090933C0180933B0182EC35
:1007900090E090933E0180933D0186EC90E0909331
:1007A000400180933F011092420110924301109248
:1007B0004401109245010895CF92DF92EF92FF928B
:1007C0000F931F93CF93DF937C016A01EB0100E04D
:1007D00010E00C151D0571F06991D701ED91FC91A8
:1007E0000190F081E02DC7010995892B19F00F5F69
:1007F0001F4FEFCFC801DF91CF911F910F91FF9055
:10080000EF90DF90CF9008956115710581F0DB01C5
:100810000D900020E9F7AD0141505109461B570BDF
:10082000DC01ED91FC910280F381E02D099480E0E0
:1008300090E00895EF92FF920F931F93CF93DF9371
:100840008C017B01C0E0D0E0F701EC0FFD1F64914B
:10085000662359F0F801A081B181ED91FC91C801A6
:100860000995892B11F02196EFCFCE01DF91CF9121
:100870001F910F91FF90EF900895DC01ED91FC9195
:100880000190F081E02D099460E171E00C94040482
:100890000F931F93CF93DF93EC010E941A048C01F6
:1008A000CE010E944404800F911FDF91CF911F91D0
:1008B0000F9108958F929F92AF92BF92DF92EF9225
:1008C000FF920F931F93CF93DF93CDB7DEB7A1971E
:1008D0000FB6F894DEBF0FBECDBF7C01F42FD52E2E
:1008E000CB0119A2223008F42AE08E010F5D1F4FC0
:1008F000822E912CA12CB12C6F2F7D2DA50194015E
:100900000E94BB06F22FD32ECA01015011096A3092
:1009100014F4E0E301C0E7E3E60FD801EC93232BE6
:10092000242B252B49F7B801C7010E940404A19686
:100930000FB6F894DEBF0FBECDBFDF91CF911F91F0
:100940000F91FF90EF90DF90BF90AF909F908F90AE
:100950000895CF92DF92EF92FF920F931F93CF9360
:10096000DF93EC016A017B012115310579F4E881FF
:10097000F9810190F081E02D642FDF91CF911F91DB
:100980000F91FF90EF90DF90CF9009942A303105BE
:10099000E9F477FF1AC06DE20E943D048C01442700
:1009A0005527BA014C195D096E097F092AE0CE016D
:1009B0000E945A04800F911FDF91CF911F910F91D8
:1009C000FF90EF90DF90CF9008952AE0B701A60145
:1009D000CE01DF91CF911F910F91FF90EF90DF90AB
:1009E000CF900C945A040F931F93CF93DF93EC0195
:1009F0009A01AB01662757FD6095762F0E94A904E6
:100A00008C01CE010E944404800F911FDF91CF9191
:100A10001F910F9108952115310541F4DC01ED91ED
:100A2000FC910190F081E02D642F09940C945A04FC
:100A30000F931F93CF93DF93EC019A01462F50E061
:100A400060E070E00E940B058C01CE010E9444041E
:100A5000800F911FDF91CF911F910F9108950F93F8
:100A60001F93CF93DF93EC010E940B058C01CE0105
:100A70000E944404800F911FDF91CF911F910F912D
:100A8000089508950E949B050E9441050E94B501AA
:100A9000C2E2D2E00E94EC012097E1F30E94220220
:100AA000F9CF1F920F920FB60F9211242F933F93FD
:100AB0008F939F93AF93BF9380917701909178012B
:100AC000A0917901B0917A013091760123E0230F52
:100AD0002D3720F40196A11DB11D05C026E8230F76
:100AE0000296A11DB11D209376018093770190930A
:100AF0007801A0937901B0937A0180917B01909164
:100B00007C01A0917D01B0917E010196A11DB11DD6
:100B100080937B0190937C01A0937D01B0937E0133
:100B2000BF91AF919F918F913F912F910F900FBEE9
:100B30000F901F901895789484B5826084BD84B519
:100B4000816084BD85B5826085BD85B5816085BDC8
:100B5000EEE6F0E0808181608083E1E8F0E01082E1
:100B6000808182608083808181608083E0E8F0E022
:100B7000808181608083E1EBF0E08081846080830C
:100B8000E0EBF0E0808181608083EAE7F0E0808143
:100B900084608083808182608083808181608083A3
:100BA0008081806880831092C10008950CD0A9C014
:100BB000A1D040F098D030F021F45F3F19F08AC006
:100BC0005111D3C08DC0AED098F39923C9F35523EA
:100BD000B1F3951B550BBB27AA2762177307840730
:100BE00038F09F5F5F4F220F331F441FAA1FA9F3E6
:100BF00033D00E2E3AF0E0E830D091505040E695D8
:100C0000001CCAF729D0FE2F27D0660F771F881F38
:100C1000BB1F261737074807AB07B0E809F0BB0B27
:100C2000802DBF01FF2793585F4F2AF09E3F51054B
:100C300068F050C09AC05F3FECF3983EDCF38695B5
:100C400077956795B795F7959F5FC9F7880F911DC1
:100C50009695879597F90895E1E0660F771F881FAD
:100C6000BB1F621773078407BA0720F0621B730B60
:100C7000840BBA0BEE1F88F7E09508955BD088F0DF
:100C80009F5790F0B92F9927B751A0F0D1F0660F78
:100C9000771F881F991F1AF0BA95C9F712C0B13093
:100CA00081F062D0B1E008955FC0672F782F882768
:100CB000B85F39F0B93FCCF3869577956795B395D2
:100CC000D9F73EF490958095709561957F4F8F4F41
:100CD0009F4F089597F99F6780E870E060E008955E
:100CE0009FEF80EC089500240A9416161706180644
:100CF0000906089500240A94121613061406050620
:100D00000895092E0394000C11F4882352F0BB0FB0
:100D100040F4BF2B11F460FF04C06F5F7F4F8F4F13
:100D20009F4F089557FD9058440F551F59F05F3F4E
:100D300071F04795880F97FB991F61F09F3F79F0FD
:100D400087950895121613061406551FF2CF46957F
:100D5000F1DF08C0161617061806991FF1CF869501
:100D60007105610508940895E894BB2766277727E5
:100D7000CB0197F90895A1E21A2EAA1BBB1BFD0116
:100D80000DC0AA1FBB1FEE1FFF1FA217B307E4076A
:100D9000F50720F0A21BB30BE40BF50B661F771FC2
:100DA000881F991F1A9469F76095709580959095A2
:100DB0009B01AC01BD01CF010895EE0FFF1F05900F
:0A0DC000F491E02D0994F894FFCFA0
:100DCA00000000007202DC03F6010E02000250026B
:100DDA000D0A006E616E00696E66006F7666002EFF
:020DEA00000007
:00000001FF
